:020000040800F2
:10000000F00A00204501000831190008EF0D000832
:100010000D190008E7090008CB33000800000000B4
:100020000000000000000000000000009F20000809
:10003000350C0008000000006B1E0008DD210008E0
:100040005F0100085F0100085F0100085F01000810
:100050005F0100085F0100085F0100085F01000800
:100060005F0100085F0100085F0100085F010008F0
:100070005F0100085F0100085F0100085F010008E0
:100080005F0100085F0100085F0100085F010008D0
:100090005F0100085F0100085F0100085F010008C0
:1000A0005F0100085F0100085F0100085F010008B0
:1000B00041220008612400089D2600085F01000815
:1000C0005F0100085F0100085F0100085F01000890
:1000D0005F010008E93000089D3100085F01000859
:1000E0005F0100085F0100085F0100085F01000870
:1000F0005F0100085F0100085F0100085F01000860
:100100005F0100085F0100085F0100085F0100084F
:100110005F010008012F0008252900085F01000881
:100120005F0100085F0100085F0100085F0100082F
:10013000DFF80CD000F0E4FB004800473D45000824
:10014000F00A00200648804706480047FEE7FEE721
:10015000FEE7FEE7FEE7FEE7FEE7FEE7FEE7FEE777
:10016000E121000831010008CAB2401E10F8011F49
:100170008A4202D00029F9D100207047421C10F8B1
:10018000011B0029FBD1801A7047034611F8012B8F
:1001900000F8012B002AF9D11846704770B50646C1
:1001A00003F028F9046805460A220021304600F0D1
:1001B00071FA2C6070BD2DE9FE4F804681EA030084
:1001C000C00F0C46009021F0004123F00045B8EB31
:1001D0000200A94105D24046214690461C460B46E6
:1001E000024623F00040104347D0270DC7F30A0012
:1001F000C3F30A510290401A019040286BDAC3F30E
:10020000130040F4801B0098924620B10023D2EBEB
:10021000030A63EB0B0B01985946C0F140025046AC
:1002200000F007FA06460D4650465946019A00F07E
:100230001FFA10EB08006141002487EA115284EA9A
:10024000E7731A4340D0009A62B3019A012A4FEA39
:10025000075215DC001B61EB02014FF0004202EA7D
:100260000752CDE90042001C41F5801132462B4671
:1002700000F08EFA03B0BDE8F08F40462146F9E762
:10028000001B61EB0201001C41F5801300185B416B
:100290002018A2F5001747EB030140EAD570B61904
:1002A0006D4111E06D084FEA360645EAC0754FEA28
:1002B0000752001B61EB0201001C41F58011490847
:1002C0004FEA30000019514132462B4603B0BDE8D9
:1002D000F04F00F04EBA0098012240000023D0EB0E
:1002E000020263EBE073009821464FEAE074B8EB3A
:1002F000000061EB0401E9E783F000435BE781F074
:10030000004158E72DE9FE4F81EA030404F0004460
:1003100021F0004100944FF0000B23F0004350EA1D
:1003200001045ED052EA03045BD0C3F30A54C1F364
:100330000A552C44A4F2F3340194A0FB0254C1F3F7
:10034000130141F48011C3F3130343F4801301FB41
:10035000024400FB034E840A970A44EA815447EAA8
:100360008357A4FB076802958D0A05FB07854FEAB2
:10037000932C04FB0C542705029D4FEA065847EACC
:100380001637B5EB08056EEB070C870E920E47EAA1
:10039000811742EA8312A7FB0201B6EB0B0164EB63
:1003A00000042B0D43EA0C335E1844EB1C50DA4674
:1003B0005146E7FB0201C5F313044FEA0B3343EA4E
:1003C00014534FEA0432019C43EA0603A4F10C04DF
:1003D0000294009CCDE900B400F0DAF903B0BDE866
:1003E000F08F00200146F9E72DE9F04D81EA030482
:1003F00004F0004B21F0004514464FF0000A23F0B2
:10040000004150EA050220D054EA01021DD0C5F394
:100410000A570246C5F31303C1F31300C1F30A568A
:1004200040F4801543F48013A7EB0608101BD64652
:1004300008F2FD3873EB050002D308F1010801E072
:1004400092185B41B8F1000F03DA00200146BDE8C5
:10045000F08D00204FF48011064684460EE0171BF5
:1004600073EB050705D3121B63EB050306434CEA48
:10047000010C49084FEA300092185B4150EA01072D
:10048000EDD152EA030012D082EA040083EA0501AA
:10049000084305D0101BAB4106D20122002306E021
:1004A00000224FF0004302E06FF0010253101AEBFC
:1004B00006004CEB085110EB0A0041EB0B01BDE8C4
:1004C000F04D00F056B90EB540F2334102910021D3
:1004D000CDE900110A460B4600F05AF903B000BD01
:1004E00020F00040C10DC0F3160040F400007F2949
:1004F00001DA00207047962903DCC1F19601C8405B
:100500007047963988407047C1F30A5210B5C1F35D
:10051000130140F2FF3341F480119A4201DA0020C6
:1005200010BD40F233439A42A2F2334203DC5242FE
:1005300000F08EF810BD904010BD000030B5041ED4
:1005400071F1000404DB4FF00044404264EB010110
:10055000141E73F1000405DB1C464FF000435242A9
:1005600063EB0403994208BF904230BD01F00043A1
:1005700030B421F0004150EA010206D00A0DA2F584
:100580006072C1F31301002A02DC30BC0020704706
:10059000440F44EAC104C100E01830BC00EBC25073
:1005A00000F0B0B830B50B460146002020220124EF
:1005B00009E021FA02F59D4205D303FA02F5491B31
:1005C00004FA02F52844151EA2F10102F1DC30BD47
:1005D0002DE9F05F0546002092469B468846064678
:1005E000814640241BE0284641464746224600F00B
:1005F0002FF853465A46C01A914110D31146184657
:10060000224600F016F82D1A67EB01084F462246E5
:100610000120002100F00DF817EB00094E41201ECB
:10062000A4F10104DFDC484631462A464346BDE8D2
:10063000F09F202A04DB203A00FA02F100207047E4
:100640009140C2F1200320FA03F319439040704710
:10065000202A04DB203A21FA02F00021704721FA17
:1006600002F3D040C2F1200291400843194670477E
:10067000202A06DBCB17203A41FA02F043EAE07366
:1006800006E041FA02F3D040C2F120029140084353
:10069000194670472DE9F04791460F4680460446BB
:1006A000002614F8015B2DB100F03CF90068405DB4
:1006B000C007F6D12B2D02D02D2D18D0641E4A462E
:1006C0003946204600F032F927B13968A14201D1FC
:1006D000C7F8008071054FF002040BD54042002896
:1006E00003DD02F087FE0460A007BDE8F08746F452
:1006F0008066E4E70028F8DA02F07CFE04606FF020
:100700000040F2E70029A8BF7047401C490008BF1D
:1007100020F00100704710B4B0FA80FC00FA0CF031
:1007200050EA010404BF10BC704749B1CCF1200469
:1007300021FA04F411FA0CF118BF012121430843F6
:10074000A3EB0C01CB1D4FEA00614FEA102042BF22
:10075000002010BC704700EBC35010440029A4BF18
:1007600010BC7047401C490008BF20F0010010BCBD
:10077000704710B5141E73F1000408DA401C41F1F3
:10078000000192185B411A4301D120F0010010BD15
:100790002DE9F04D92469B4611B1B1FA81F202E08B
:1007A000B0FA80F220329046FFF743FF04460F462E
:1007B00040EA0A0041EA0B0153465A46084313D067
:1007C000114653EA010019D0C8F140025046FFF724
:1007D0003FFF05460E46504659464246FFF729FF61
:1007E000084305D0012004E020463946BDE8F08DDD
:1007F0000020054346EAE0762C4337430A98630518
:10080000E40AA0EB08000022FD0A44EA47540A303B
:1008100002D500200146E9E7010510196941DDE92B
:10082000084500196941BDE8F04DA2E72DE9F04DFA
:1008300000231A461B1A8A4103DB00200146BDE84B
:10084000F08DC1F30A52C1F3130141F480154FF04A
:10085000000BD10702D100186D41521E002704463B
:1008600040F2FF11384601EB620A3E4680460246DE
:1008700000204FF48011FFF7EBFEC2197141BB1845
:1008800046EB0100B4EB030C75EB000C04D3E41A47
:1008900065EB000517460E46241908F101006D416D
:1008A00080463428E3DDF91946EB0600091BA84110
:1008B00003D24FF0FF32134601E0002213461BEB38
:1008C000070046EB0A51BDE8F04DFFF752BFC1F3F8
:1008D0000A52C1F3130140F2FF3341F480119A42EE
:1008E00002DA00200146704740F233439A42A2F2F6
:1008F000334202DC5242FFF7ABBEFFF79ABE000064
:10090000064C074D06E0E06840F0010394E807005C
:1009100098471034AC42F6D3FFF70EFCCC540008D5
:10092000EC54000800487047C85400082DE9F05FF7
:1009300082460078002715468B460AF10104B94625
:10094000302801D09DB113E014F8010B012778285D
:1009500003D0582801D045B10AE00DB1102D07D1C0
:100960000027102514F8010B02E0082500E00A25F5
:100970000026B0460EE005FB080005FB06F1012746
:1009800001EB10461FFA80F8B6F5803F00D3B94658
:1009900014F8010B294600F018F80028EBDABBF137
:1009A000000F05D00FB1641E00E05446CBF80040A4
:1009B000B9F1000F06D002F01DFD02210160C81E32
:1009C000BDE8F09F48EA0640FAE73A2800D23038FE
:1009D00020F02002412A01D3A2F13700884201D33E
:1009E0004FF0FF30704700BFFEE7000010B504462F
:1009F00024B98021044800F0F3F903E08021024883
:100A000000F0ECF910BD00000020014010B50446D4
:100A10002CB94FF48071054800F0E0F904E04FF480
:100A20008071024800F0DCF910BD00000020014098
:100A300010B504462CB94FF48071054800F0CEF98A
:100A400004E04FF48071024800F0CAF910BD0000C4
:100A50000008014010B5044624B90221044800F002
:100A6000BFF903E00221024800F0B8F910BD000010
:100A70000010014000F0805111B10349086001E00D
:100A80000249486070470000040402400000024030
:100A900021B1026842F00102026004E002684FF6F0
:100AA000FE731A400260704701684FF6FE721140F3
:100AB00001600021016041608160C1604B49884252
:100AC00008D14A490839496841F00F01474A083AB4
:100AD00051608AE045491431884208D143490839B8
:100AE000496841F0F001414A083A51607DE03F49D0
:100AF0002831884208D13D490839496841F470617C
:100B00003A4A083A516070E038493C31884208D18D
:100B100036490839496841F47041344A083A51600D
:100B200063E032495031884208D130490839496878
:100B300041F470212D4A083A516056E02B49643146
:100B4000884208D129490839496841F47001274A87
:100B5000083A516049E025497831884208D1234953
:100B60000839496841F07061204A083A51603CE018
:100B70001F49884206D1011F096841F00F01021F79
:100B8000116032E01A491431884208D11849091F0E
:100B9000096841F0F001164A121F116025E014495E
:100BA0002831884208D11249091F096841F470614F
:100BB0000F4A121F116018E00D493C31884208D1DC
:100BC0000B49091F096841F47041094A121F11605D
:100BD0000BE007495031884207D10549091F0968D0
:100BE00041F47021024A121F116070470800024050
:100BF0000804024010B50022026847F6F0739A43D9
:100C00000C6A8B6823430C6923434C6923438C692A
:100C10002343CC6923434C6A23438C6A23431A43FE
:100C20000260CB6843600B6883604B68C36010BD93
:100C30004160704770472DE9F041024600250026CB
:100C4000002000230024002791F803C00CF00F05BA
:100C500091F803C00CF0100CBCF1000F03D091F818
:100C600002C04CEA050591F800C0BCF1000F31D07C
:100C7000146800202BE04FF0010C0CFA00F3B1F8DF
:100C800000C00CEA03069E4220D183004FF00F0CF7
:100C90000CFA03F7BC4305FA03FC4CEA040491F890
:100CA00003C0BCF1280F06D14FF0010C0CFA00FC78
:100CB000C2F814C00AE091F803C0BCF1480F05D196
:100CC0004FF0010C0CFA00FCC2F810C0401C0828C0
:100CD000D1D31460B1F800C0BCF1FF0F34DD54680B
:100CE00000202EE000F1080C4FF0010808FA0CF388
:100CF000B1F800C00CEA03069E4221D183004FF0F8
:100D00000F0C0CFA03F7BC4305FA03FC4CEA04048D
:100D100091F803C0BCF1280F05D100F1080C08FAC6
:100D20000CF8C2F8148091F803C0BCF1480F07D149
:100D300000F1080C4FF0010808FA0CF8C2F8108016
:100D4000401C0828CED35460BDE8F081F0B50A46B7
:100D5000002300240021002500F00046B6F1004FDA
:100D600002D11D4EF16901E01B4E7168C0F30345CD
:100D700083B200F44016B6F5401F08D121F070612F
:100D8000154E766826F07066134F7E6012E000F410
:100D90008016B6F5801F06D1032606FA05F4A14396
:100DA00041F0706106E0460D360103FA06F6B143E4
:100DB00041F0706122B1460D360103FA06F6314367
:100DC00000F00046B6F1004F02D1034EF16101E0A0
:100DD000014E7160F0BD00000000014041617047AC
:100DE000016170470AB1016100E04161704700BFD5
:100DF000FEE7000008B50121402001F057F801216D
:100E0000042001F053F80121202001F04FF82820A0
:100E10008DF803000120ADF8000003208DF80200DA
:100E200069461D48FFF707FF28208DF803001020B2
:100E3000ADF8000003208DF8020069461748FFF75F
:100E4000FAFE28208DF803000120ADF800000320F1
:100E50008DF8020069461248FFF7EDFE28208DF854
:100E600003000820ADF8000003208DF80200694659
:100E70000B48FFF7E0FE01210748FFF7AFFF102105
:100E80000648FFF7ABFF01210548FFF7A7FF082140
:100E90000348FFF7A3FF08BD000801400018014008
:100EA0000014014008B50121082000F0FFFF0121D6
:100EB000402000F0FBFF10208DF803002020ADF84B
:100EC000000003208DF8020069460C48FFF7B3FECE
:100ED00010208DF803002020ADF8000003208DF8CD
:100EE000020069460648FFF7A6FE20210348FFF7E7
:100EF00077FF20210248FFF773FF08BD000C014077
:100F00000018014000B589B00121080200F0CEFFB1
:100F10000121102000F0CAFF0121022000F0B6FFDD
:100F20000121084600F0C2FF01214148FFF70EFFF2
:100F300010208DF823008020ADF8200003208DF8CC
:100F4000220008A93B48FFF776FE18208DF8230001
:100F50004020ADF8200003208DF8220008A9364873
:100F6000FFF769FE10208DF823002020ADF8200047
:100F700003208DF8220008A92F48FFF75CFE80218E
:100F80002C48FFF72BFF40212B48FFF727FF20219C
:100F90002948FFF723FF05A801F0E0FE0020ADF887
:100FA0001A00ADF816006320ADF818004720ADF820
:100FB000140005A9214801F07FFE01A801F067FE99
:100FC0006020ADF804000020ADF80C000120ADF861
:100FD00006003120ADF80A0001A9184801F0FCFC18
:100FE0001D208DF8000001208DF803008DF8010010
:100FF0008DF80200684600F09DFC01210F4801F0C9
:10100000B6FE01210D4801F0BDFC012211460B483E
:1010100001F0D8FC0821094801F02AFD0121074808
:1010200001F0A4FC0121054801F0AFFC09B000BDAE
:10103000000C1A0000200140001001400004004094
:1010400000B589B00121080200F030FF0121102015
:1010500000F02CFF0121022000F018FF01210846BA
:1010600000F024FF01214248FFF770FE10208DF8A8
:1010700023000001ADF8200003208DF8220008A90C
:101080003C48FFF7D8FD18208DF823008020ADF8EC
:10109000200003208DF8220008A93748FFF7CBFD78
:1010A00010208DF823002020ADF8200003208DF8BB
:1010B000220008A93048FFF7BEFD4FF480712D488B
:1010C000FFF78CFE80212C48FFF788FE20212A485C
:1010D000FFF784FE05A801F041FE0020ADF81A00DC
:1010E000ADF816006320ADF818004720ADF81400E5
:1010F00005A9224801F0E0FD01A801F0C8FD60202B
:10110000ADF804000020ADF80C000120ADF8060099
:101110003120ADF80A0001A9184801F0B3FC1D20E8
:101120008DF8000001208DF803008DF801008DF886
:101130000200684600F0FEFB0121104801F017FE96
:1011400001210E4801F01EFC012211460B4801F05E
:1011500039FC0821094801F0E7FC0121074801F0AA
:1011600005FC0121054801F010FC09B000BD00009C
:10117000000C1A0000200140001001400004004053
:1011800000B589B00121042000F090FE012110205B
:1011900000F08CFE0121202000F088FE01210220B9
:1011A00000F074FE0121084600F080FE0121434852
:1011B000FFF7CCFD10208DF823000001ADF82000D2
:1011C00003208DF8220008A93D48FFF734FD1820C0
:1011D0008DF823004FF48070ADF8200003208DF8C7
:1011E000220008A93748FFF726FD10208DF82300BC
:1011F0008020ADF8200003208DF8220008A9324895
:10120000FFF719FD4FF480712D48FFF7E7FD4FF40C
:1012100080712C48FFF7E2FD80212B48FFF7DEFDAF
:1012200005A801F09BFD0020ADF81A00ADF81600EE
:101230006320ADF818004720ADF8140005A9234835
:1012400001F03AFD01A801F022FD6020ADF8040094
:101250000020ADF80C000120ADF806003120ADF8FB
:101260000A0001A9194801F06DFC1D208DF800004D
:1012700001208DF803008DF801008DF8020068460A
:1012800000F058FB0121114801F071FD01210F48C8
:1012900001F078FB012211460C4801F093FB082174
:1012A0000A4801F09FFC0121084801F05FFB012181
:1012B000064801F06AFB09B000BD0000000C1A00EE
:1012C00000080140001001400014014000040040EB
:1012D00000B589B00121102000F0E8FD0121202097
:1012E00000F0E4FD0121022000F0D0FD01210846BC
:1012F00000F0DCFD01214248FFF728FD10208DF8A9
:1013000023000220ADF8200003208DF8220008A958
:101310003C48FFF790FC18208DF823004FF4007034
:10132000ADF8200003208DF8220008A93548FFF70A
:1013300082FC10208DF823008020ADF820000320CF
:101340008DF8220008A93048FFF775FC02212D48CE
:10135000FFF744FD4FF400712A48FFF73FFD80215D
:101360002948FFF73BFD05A801F0F8FC0020ADF887
:101370001A00ADF816006320ADF818004720ADF84C
:10138000140005A9214801F097FC01A801F07FFC99
:101390006020ADF804000020ADF80C000120ADF88D
:1013A00006003120ADF80A0001A9184801F024FC1C
:1013B0001D208DF8000001208DF803008DF801003C
:1013C0008DF80200684600F0B5FA01210F4801F0DF
:1013D000CEFC01210D4801F0D5FA012211460B483F
:1013E00001F0F0FA0821094801F044FC0121074806
:1013F00001F0BCFA0121054801F0C7FA09B000BDAF
:10140000000C1A00001001400014014000040040CC
:1014100010B50446204600F08BF8322104FB01F0A1
:1014200002F060FC044908800C23062211460248A1
:10143000008800F09DF810BD6000002070B50546E2
:101440000C46002D0CDA0020FFF7D0FA0020FFF741
:10145000DDFA0020FFF7ECFA0020FFF7FBFA0DE0C1
:10146000002D0BDD0120FFF7C1FA0120FFF7CEFAB6
:101470000120FFF7DDFA0120FFF7ECFA002C0CDD6C
:101480000020FFF7B3FA0120FFF7C0FA0020FFF7B2
:10149000CFFA0120FFF7DEFA0DE0002C0BDA012075
:1014A000FFF7A4FA0020FFF7B1FA0120FFF7C0FA16
:1014B0000020FFF7CFFA70BD70B504460D4600BF9F
:1014C00029462046FFF7BAFF2946204603F070F868
:1014D000064606EB861040000449086018231222D5
:1014E00011460248006800F043F870BD5C0000201F
:1014F00070B504460D4600BF00200C49086029461F
:101500002046FFF79BFF2946204603F051F8064688
:1015100006EB860000EBC600044908600A2304229B
:1015200011460248006800F023F870BD5C000020FE
:1015300010B50446002C0CDD0020FFF757FA0120FF
:10154000FFF764FA0120FFF773FA0020FFF782FA31
:101550000DE0002C0BDA0120FFF748FA0020FFF71E
:1015600055FA0020FFF764FA0120FFF773FA10BD67
:101570002DE9F04F89B004460D4616469946002CD9
:1015800006DD6148007820F0080008305E490870E8
:10159000012C24D1A01E5C4948610846007820F047
:1015A0000700801C08704FF47A7048606421574827
:1015B00001F077FB3221554801F075FB3221534889
:1015C00001F073FB3221514801F071FB32214F4889
:1015D00001F06FFB01214D4801F0D7F990E0002C9C
:1015E000FCD064204543464309FB00F94848B0FB62
:1015F000F9F0454908614748B0FBF5F00190FEF766
:1016000062FF074602F0E9FF0022434BCDE90201E9
:10161000FEF778FE0022414BCDE90401FEF7E4FE1F
:10162000CDE90601FEF770FF37494860C5EBC500FC
:1016300000EB45106421B0FBF1F109FB09F0B0FBB0
:10164000F1F01FFA80FABAF1000F01D14FF0010A50
:1016500004FB06F0A919B0FBF1F01FFA80FBBBF107
:10166000000F01D14FF0010BD34504DCABEB0400BC
:101670002549C86006E00AFB05F0B0FBF6F04042E1
:101680002149C8602048C06818B94FF0FF301E4992
:10169000C8601D48C06820441B49886008464068EF
:1016A000096988420AD818480069174948600846FD
:1016B000007820F00700C01C087006E0124800788F
:1016C00020F00700401C1049087000200E494861B6
:1016D00064210E4801F0E5FA32210C4801F0E3FAEA
:1016E00032210A4801F0E1FA3221084801F0DFFA1C
:1016F0003221064801F0DDFA0121044801F045F9E4
:1017000009B0BDE8F08F00003C010020000400405B
:10171000FDFE0200F23557020068BA400000594051
:101720002DE9F04F89B004460D4616469946002C27
:1017300006DD5948007820F0080008305649087046
:10174000012C1CD1A01E544948610846007820F0A5
:101750000700801C08704FF47A7048606421C0064E
:1017600001F09FFA3221480701F0A1FA322148071F
:1017700001F09FFA0121880701F007F988E0002CA9
:10178000FCD064204543464309FB00F94348B0FBC5
:10179000F9F0414908614248B0FBF5F00190FEF7CD
:1017A00092FE074602F019FF00223E4BCDE90201EE
:1017B000FEF7A8FD00223C4BCDE90401FEF714FE24
:1017C000CDE90601FEF7A0FE33494860C5EBC50030
:1017D00000EB45106421B0FBF1F109FB09F0B0FB0F
:1017E000F1F01FFA80FABAF1000F01D14FF0010AAF
:1017F00004FB06F0A919B0FBF1F01FFA80FBBBF166
:10180000000F01D14FF0010BD34504DCABEB04001A
:101810002149C86006E00AFB05F0B0FBF6F0404243
:101820001D49C8601C48C06818B94FF0FF301A49FC
:10183000C8601948C0682044174988600846406855
:10184000096988420AD81448006913494860084663
:10185000007820F00700C01C087006E00E480078F1
:1018600020F00700401C0C49087000200A4948611C
:101870006421080701F015FA3221480701F017FA30
:101880003221480701F015FA0121880701F07DF89F
:1018900009B0BDE8F08F000054010020FDFE0200F9
:1018A000F23557020068BA4000005940012805D1BE
:1018B00005490968491C044A116004E002490968A5
:1018C000491E014A1160704750000020012805D1CF
:1018D00005490968491C044A116004E00249096885
:1018E000491E014A1160704754000020012805D1AB
:1018F00005490968491C044A116004E00249096865
:10190000491E014A116070475800002000BFFEE7E1
:1019100010B5044624B910210448FFF75FFA03E02C
:1019200010210248FFF75CFA10BD000000080140DA
:101930007047000070B5002100230F22C47804B363
:10194000154C246804F4E064C4F5E064210AC1F194
:101950000403CA40447804FA03F184781440214314
:1019600009010E4C0678A155047804F01F050124E6
:10197000AC4005786D11AD0005F1E025C5F80041DA
:1019800009E0047804F01F050124AC40044D0678FA
:10199000761145F8264070BD0CED00E000E400E053
:1019A00080E100E002490143024A116070470000F3
:1019B0000000FA050CED00E000200CE0002106E03C
:1019C0000022064B03EBC0135A544A1CD1B28029A3
:1019D000F6DB421CD0B20828F0DB7047EE02002094
:1019E0002DE9F04304460D4616461F467F2C01DDC7
:1019F000BDE8F0833F2D00DDFAE7A119802902DD63
:101A0000C4F18001CEB2E919402902DDC5F14001DF
:101A1000CFB2284630E0234629E04FEAE07C00EBD5
:101A20005C7C4FEAEC0CDFF85C8008EBCC1C1CF80B
:101A300003C002464FEAE07800EB58784FEAE80826
:101A4000A0EBC8094FF0010808FA09F82CEA080CC5
:101A500001464FEAE07800EB58784FEAE808DFF8F3
:101A6000249009EBC81808F803C0591CCBB2A1197F
:101A70009942D2DC411CC8B2E9198142CBDC00BFDB
:101A8000B6E70000EE02002038B5002406E000258D
:101A900000E06D1CB5F57A7FFBD3641CB4F57A7F4A
:101AA000F5D30121802000F001FA14208DF8030005
:101AB00003208DF802004FF40050ADF80000694695
:101AC0000848FFF7B8F84FF40040ADF80000694649
:101AD0000448FFF7B0F8012000F088F9012000F079
:101AE00091F938BD001C014070B50546002411E095
:101AF00080212141294009B1012100E0002108464F
:101B000000F080F9012000F071F9002000F06EF97A
:101B1000601CC4B2082CEBDB012000F067F9002048
:101B200000F064F970BD10B5012000F06BF90120E0
:101B300000F05CF9002000F065F9002000F056F993
:101B400010BD10B5002000F05DF9012000F04EF945
:101B5000012000F057F910BD10B5FFF795FFAE203A
:101B600000F05CF9D52000F059F9802000F056F91A
:101B7000A82000F053F93F2000F050F9D32000F0E6
:101B80004DF9002000F04AF9402000F047F9A1206B
:101B900000F044F9C82000F041F9DA2000F03EF9E5
:101BA000122000F03BF9812000F038F9CF2000F03E
:101BB00035F9D92000F032F9F12000F02FF9DB20BF
:101BC00000F02CF9302000F029F9A42000F026F9CB
:101BD000A62000F023F98D2000F020F9142000F059
:101BE0001DF9AF2000F01AF9FFF7E6FE00F0EAF861
:101BF00010BD70B505460C4645F0B00000F00EF97A
:101C0000102141EA141000F009F904F00F0000F06F
:101C100005F970BDF8B506460F4614461D46082D59
:101C20000CD1A4F120000E4901EB00101023082272
:101C300039460090304600F017F80FE0062D0DD120
:101C4000A4F1200000EB4000064901EB400008230E
:101C5000062239460090304600F006F8F8BD000034
:101C6000D84B0008C85100082DE9F04707460C463C
:101C700090469946DDF820A07F2F01DDBDE8F08772
:101C80003F2C00DDFAE74B46424621463846FFF737
:101C9000A7FE002570E0002669E0B8197F2800DD66
:101CA00067E0E11704EB517105EBE101072900DD65
:101CB000E4E72046E21704EB527205EBE202344BF4
:101CC00003EBC212BB19D25C2146E31704EB53733A
:101CD000DB10A4EBC30305FB086C1AF80CC00CFA6C
:101CE00003FC42EA0C02E31704EB537305EBE30336
:101CF000DFF89CC00CEBC31307EB060C03F80C20B9
:101D0000E11704EB517105EBE101491C072900DDE6
:101D10002BE02046E21704EB527205EBE202521C64
:101D20001B4B03EBC212BB19D25C2146E31704EB39
:101D30005373DB10A4EBC303C3F1080305FB086C6A
:101D40001AF80CC04CFA03FC42EA0C02E31704EB4D
:101D5000537305EBE3035B1CDFF834C00CEBC313D8
:101D600007EB060C03F80C2000BF701CC6B24645FA
:101D700093DB00BF681CC5B2A9F10100C11700EBDD
:101D80005171012202EBE101A94284DC00BF75E739
:101D9000EE0200202DE9F0410646884615461F4612
:101DA000002409E02A5D04FB0761C8B23B464146B6
:101DB000FFF730FF601CC4B2285D0028F2D1BDE8F7
:101DC000F081000010B500240BE000212046FFF751
:101DD00010FF054901EBC410802100F02FF8601CB2
:101DE000C4B2082CF1DB10BDEE02002010B5044691
:101DF00022464FF400410248FEF7F4FF10BD0000F8
:101E0000001C014010B5044622464FF40051024820
:101E1000FEF7E8FF10BD0000001C014010B50446AD
:101E2000FFF781FE7820FFF75FFE0020FFF75CFEE2
:101E30002046FFF759FEFFF784FE10BD70B505463A
:101E40000E46FFF770FE7820FFF74EFE4020FFF7AA
:101E50004BFE002404E0285DFFF746FE601CC4B280
:101E6000B442F8DBFFF76DFE70BD704729B1064A3A
:101E700052690243044B5A6104E0034A52698243A7
:101E8000014B5A61704700000010024029B1064A18
:101E9000D2690243044BDA6104E0034AD269824307
:101EA000014BDA61704700000010024029B1064A78
:101EB00092690243044B9A6104E0034A92698243A7
:101EC000014B9A61704700000010024030B50021BC
:101ED0000022002400232D4D6D6805F00C0121B176
:101EE000042905D0082923D105E0294D056022E009
:101EF000274D05601FE0254D6D6805F47012234DD8
:101F00006D6805F48034022505EB92421CB9214D21
:101F1000554305600BE01D4D6D6805F400351DB19E
:101F20001C4D5543056002E0194D5543056002E024
:101F3000174D056000BF00BF144D6D6805F0F0013E
:101F40000909154D6B5C0568DD4045600F4D6D68F6
:101F500005F4E061090A104D6B5C4568DD40856061
:101F60000A4D6D6805F46051C90A0B4D6B5C4568FC
:101F7000DD40C560054D6D6805F44041890B074D96
:101F80006B5CC568B5FBF3F5056130BD0010024020
:101F900000127A0000093D0000000020100000201F
:101FA0002DE9F05F82465046FEF78DFA80460B4AD7
:101FB0000B4BFEF7A7F9064600220A4BFEF7FBF88B
:101FC0000446FEF7D3FA83465846FEF789FA84B2F0
:101FD0002146054800F06BFEBDE8F09FAE47E17A70
:101FE00014AEE73F00004940000C00402DE9F05FCF
:101FF00082465046FEF767FA80460B4A0B4BFEF7C7
:1020000081F9064600220A4BFEF7D5F80446FEF792
:10201000ADFA83465846FEF763FA84B22146054876
:1020200000F047FEBDE8F09FAE47E17A14AEE73F0F
:1020300000004940000C004021B1028842F04002FB
:10204000028004E002884FF6BF731A400280704796
:102050001AB183880B43838002E083888B4383809B
:10206000704710B50022028802F441520B884C8858
:1020700023438C882343CC8823430C8923434C89F6
:1020800023438C892343CC8923431A430280838BC7
:102090004FF2FF74234083830B8A038210BD704785
:1020A00005480078012804D1002003490870012068
:1020B00070470020FCE70000380000200548007849
:1020C000012804D100200349087001207047002036
:1020D000FCE700003900002005480078012804D101
:1020E000002003490870012070470020FCE7000031
:1020F0003A00002010B500F001F810BD0CB500202A
:10210000019000903348006840F480303149086005
:1021100000BF3048006800F4003000900198401C77
:102120000190009818B90198B0F5A06FF1D1294835
:10213000006800F4003010B10120009001E00020A0
:1021400000900098012843D12348006840F0100017
:10215000214908600846006820F00300086008462E
:10216000006840F0020008601A4840681949486059
:102170000846406848600846406840F4806048600F
:102180000846406820F47C1048600846406840F4E7
:10219000E81048600846006840F08070086000BFA2
:1021A0000C48006800F000700028F9D00948406829
:1021B00020F00300074948600846406840F00200EC
:1021C000486000BF0348406800F00C000828F9D1BF
:1021D0000CBD0000001002400020024070470000CB
:1021E00010B51348006840F0010011490860084626
:1021F0004068104908400E494860084600680E498A
:1022000008400B4908600846006820F480200860F8
:102210000846406820F4FE0048604FF41F008860C4
:10222000FFF768FF4FF000600449086010BD000030
:10223000001002400000FFF8FFFFF6FE08ED00E08E
:1022400010B50121880700F0ACFB00287CD00121EB
:10225000880700F097FB7D484068C0F34F004FF0BF
:102260008041888779484068C0F34F0078490880EA
:1022700076488088090688857448007800F0070051
:1022800030B1012817D0022872D0032812D170E093
:10229000002070490860704908604FF08040008C51
:1022A00020F480504FF08041088400214FF080409E
:1022B00000F06BFBC6E04FF08040008C40F4805093
:1022C0004FF08041088461490978C1F3C000FFF7ED
:1022D000FDFA60480068401C5E4908605B48406940
:1022E000401C5A494861084640685B490968022217
:1022F00002FB0011554840698000401C91FBF0F042
:10230000524949680C1A514840685349096802FB10
:1023100000114E4840698000401C91FBF0F200FB28
:1023200012104D490860494880684A490968884246
:102330000BD84648C068454948610846007820F0F7
:102340000700801C087012E07FE040480069A0424E
:102350000DD3424804603D48046900203E490860AE
:102360003A48007820F00700C01C3849087069E03E
:1023700025E04FF08040008C40F480504FF08041C9
:10238000088432490978C1F3C000FFF79FFA314849
:102390000068401C2F4908602C480469806809685F
:1023A00088420BD82948C068284948612B480468EE
:1023B0000846007820F00700801C087042E04FF0CB
:1023C0008040008C40F480504FF0804108841F49C9
:1023D0000978C1F3C000FFF779FA1E480068401C75
:1023E0001C49086019484069401C18494861084662
:1023F000406819490968022202FB0011134840692C
:102400008000401C91FBF0F0104949680C1A0F48FD
:1024100040681149096802FB00110C4840698000BE
:10242000401C91FBF0F200FB12100B4908600748BA
:102430004069002805DB0548007820F007000349C3
:10244000087000BF00BF0148446010BD5401002067
:102450004000004024000020280000202000002030
:1024600010B50121884800F09CFA00287ED0012197
:10247000854800F087FA85484068C0F34F008249DC
:102480003431088081484068C0F34F00091D08803E
:102490007E484068C0F34F00091D08807B484068B3
:1024A000C0F34F00091D08807848808876492C3198
:1024B00008807648007800F0070030B1012816D077
:1024C000022872D0032811D170E000207049086002
:1024D000704908606C482030008820F480506A49B8
:1024E000203108800021684800F04FFAC7E06648B4
:1024F0002030008840F480506349203108806349CF
:102500000978C1F3C000FFF7D1F961480068401CA9
:102510005F4908605D484069401C5C494861084665
:1025200040685C490968022202FB00115748406973
:102530008000401C91FBF0F0544949680C1A534844
:1025400040685449096802FB001150484069800006
:10255000401C91FBF0F200FB12104E4908604B4802
:1025600080684B49096888420CD800E08AE04748F7
:10257000C068464948610846007820F00700801C82
:10258000087011E041480069A0420DD34248046040
:102590003E48046900203F4908603C48007820F02C
:1025A0000700C01C3949087069E025E03648203032
:1025B000008840F48050344920310880334909783C
:1025C000C1F3C000FFF772F931480068401C304980
:1025D00008602E4804698068096888420BD82B4837
:1025E000C0682A4948612C4804680846007820F0F1
:1025F0000700801C087042E023482030008840F427
:10260000805021492031088020490978C1F3C00059
:10261000FFF74CF91E480068401C1D4908601B4824
:102620004069401C194948610846406819490968D1
:10263000022202FB0011154840698000401C91FBFA
:10264000F0F0124949680C1A1048406811490968AD
:1026500002FB00110D4840698000401C91FBF0F224
:1026600000FB12100B49086008484069002805DB90
:102670000648007820F007000449087000BF00BF3A
:102680000248446010BD0000000400403C010020EE
:10269000180000201C0000201400002010B50121AB
:1026A000814800F07EF900287CD001217E4800F0AE
:1026B00069F97E484068C0F34F007B493C3108808F
:1026C0007A484068C0F34F00091D08807748808829
:1026D00075492C3108807548007800F0070030B14A
:1026E000012816D0022871D0032811D16FE00020F4
:1026F0006F4908606F4908606B482030008820F4FB
:1027000080506949203108800021674800F03DF978
:10271000C6E065482030008840F48050624920318E
:10272000088062490978C1F3C000FFF7DFF860480C
:102730000068401C5E4908605C484069401C5B4979
:102740004861084640685B490968022202FB0011A3
:10275000564840698000401C91FBF0F0534949689D
:102760000C1A524840685349096802FB00114F484F
:1027700040698000401C91FBF0F200FB12104D49B3
:1027800008604A4880684A49096888420BD8474827
:10279000C068464948610846007820F00700801C60
:1027A000087012E07FE041480069A0420DD3424822
:1027B00004603E48046900203E4908603B480078B8
:1027C00020F00700C01C3949087069E025E0364850
:1027D0002030008840F4805033492031088033494C
:1027E0000978C1F3C000FFF781F831480068401C48
:1027F0002F4908602D4804698068096888420BD811
:102800002A48C068294948612B480468084600786E
:1028100020F00700801C087042E023482030008828
:1028200040F4805020492031088020490978C1F3C4
:10283000C000FFF75BF81E480068401C1C49086098
:102840001A484069401C19494861084640681949BE
:102850000968022202FB0011144840698000401CF4
:1028600091FBF0F0114949680C1A10484068114971
:10287000096802FB00110D4840698000401C91FB73
:10288000F0F200FB12100B4908600848406900286C
:1028900005DB0648007820F007000449087000BFF7
:1028A00000BF0248446010BD000800406C010020D9
:1028B00030000020340000202C0000201FB5012132
:1028C0001020FFF7E3FA0020ADF80A00ADF806008B
:1028D00041F61F40ADF8080042F20F70ADF8040059
:1028E00001A90F4800F0E8F936208DF8000001201A
:1028F0008DF8030002208DF801008DF80200684673
:10290000FFF718F801221146054800F05BF8012195
:10291000034800F037F80121014800F036F81FBDE8
:102920000010004010B501210C4800F03AF878B1D1
:102930000B48007808B9012000E000200849087021
:1029400008480078FFF72CFB07480078FFF74EFB9C
:102950000121024800F016F810BD000000100040F0
:10296000680000204D0000204E00002021B10288A8
:1029700042F08002028004E002884FF67F731A4022
:1029800002807047CA430282704721B1028842F038
:102990000102028004E002884FF6FE731A400280B2
:1029A000704730B50246002000230024158A05EA4E
:1029B0000103958905EA010413B10CB1012000E07F
:1029C000002030BD1AB183890B43838102E08389E3
:1029D0008B4383817047000070B5002400220023E0
:1029E000058C4FF6FE7635400584028C8388048B77
:1029F0004FF68F752C40B51E2C400D882C43751E4C
:102A00002A400D892A434D882A43144DA8420BD0F1
:102A1000134DA84208D0134DA84205D0124DA8422C
:102A200002D0124DA84213D14FF6F7752A404D89B6
:102A30002A434FF6FB752A408D882A434FF6FF65DF
:102A40002B404FF6FF552B408D892B43CD892B43CF
:102A500083800483CD888586028470BD002C01406C
:102A60000034014000400140004401400048014062
:102A70000A460021018B4FF6F77319401143018379
:102A80007047000070B5002400220023058C4FF62B
:102A9000EF7635400584028C8388048B48F6FF75F9
:102AA0002C404FF6FF452C400D884FF6FF7606EA86
:102AB00005252C434FF6DF752A400D8906EA0515DA
:102AC0002A434D8806EA05152A43154DA84202D02F
:102AD000144DA8421DD14FF67F752A404D894FF6FF
:102AE000FF7606EA05152A434FF6BF752A408D8802
:102AF00006EA05152A434FF6FF352B404FF2FF75C6
:102B00002B408D8906EA85052B43CD8906EA85058C
:102B10002B4383800483CD880587028470BD000029
:102B2000002C0140003401400A460021018B4FF285
:102B3000FF7319404FF6FF7303EA02231943018321
:102B40007047000070B5002400220023058C4FF66A
:102B5000FF6635400584028C8388848B4FF68F7521
:102B60002C404FF6FC752C400D882C434FF6FF553A
:102B70002A400D894FF6FF7606EA05252A434D883F
:102B800006EA05252A43154DA84202D0144DA84255
:102B90001DD14FF2FF752A404D894FF6FF7606EAA8
:102BA00005252A434FF6FF352A408D8806EA05257C
:102BB0002A434EF6FF752B404DF6FF752B408D894D
:102BC00006EA05152B43CD8906EA05152B438380BC
:102BD0008483CD888587028470BD0000002C01406D
:102BE000003401400A460021818B4FF6F7731940EB
:102BF000114381837047000070B500220023002438
:102C0000058C4EF6FF7635400584038C8488828BD4
:102C100048F6FF752A404FF6FF452A400D884FF6CB
:102C2000FF7606EA05252A434DF6FF752B400D89F0
:102C300006EA05352B434D8806EA05352B430B4D37
:102C4000A84202D00A4DA84208D14BF6FF752C408D
:102C50008D894FF6FF7606EA85152C4384808283A2
:102C6000CD88A0F84050038470BD0000002C0140C6
:102C7000003401400A460021818B4FF2FF73194056
:102C80004FF6FF7303EA0223194381837047002143
:102C9000018041808180C180018141818181C18128
:102CA00070478185704781867047018770478187AB
:102CB0007047A0F840107047002202881D4B9842D0
:102CC0000ED01D4B98420BD0B0F1804F08D01B4B5B
:102CD000984205D01A4B984202D01A4B984204D120
:102CE0004FF68F731A404B881A43174B984207D000
:102CF000164B984204D04FF6FF431A40CB881A4334
:102D000002808B8883850B8803850A4B98420BD001
:102D1000094B984208D00E4B984205D00D4B984273
:102D200002D00D4B984201D10B7A03860123838296
:102D300070470000002C01400034014000040040B6
:102D400000080040000C004000100040001400404B
:102D50000040014000440140004801404FF6FF712F
:102D6000818000210180C18041800172704721B1C2
:102D7000028842F00402028004E002884FF6FB73EE
:102D80001A4002807047000000B587B0012104207E
:102D9000FFF78CF801218803FFF788F84FF40070E3
:102DA000ADF8180003208DF81A0018208DF81B00CC
:102DB00006A91D48FDF73FFF4FF48060ADF81800ED
:102DC00004208DF81B0006A91748FDF734FF2520C5
:102DD0008DF8140000208DF815008DF816000120E4
:102DE0008DF8170005A8FEF7A5FD4FF4E13001901E
:102DF0000020ADF80800ADF80A00ADF80C00ADF801
:102E000010000C20ADF80E0001A9084800F068FA87
:102E1000012240F22551054800F03CFA0121034807
:102E200000F0F5F907B000BD00080140003801408E
:102E300070B50446002504E0605D00F09FF9681C51
:102E4000C5B2605D0028F7D170BD000000B587B045
:102E500001212020FFF72AF801214804FFF716F886
:102E600001210846FFF722F801210820FDF76EFF37
:102E70002020ADF8180003208DF81A0018208DF8D6
:102E80001B0006A91C48FDF7D6FE4020ADF818002F
:102E900004208DF81B0006A91748FDF7CCFE26205C
:102EA0008DF8140000208DF815008DF81600012013
:102EB0008DF8170005A8FEF73DFD4FF4E1300190B5
:102EC0000020ADF80800ADF80A00ADF80C00ADF830
:102ED00010000C20ADF80E0001A9084800F000FA1F
:102EE000012240F22551054800F0D4F901210348A0
:102EF00000F08DF907B000BD00140140004400400F
:102F000010B540F22551214800F09AF901283CD132
:102F10001E4800F051FAC4B21D48007858B9402C40
:102F20002DD11C48007850BB0120194908700020A1
:102F30001949087023E01648007801280FD1232C86
:102F400003D102201249087019E014481249097887
:102F5000445411480078401C0F4908700FE00C4899
:102F6000007802280BD1242C09D1002008490870D0
:102F70000A49094A1278885401200649087040F22B
:102F80002551024800F034F900BF10BD0050004048
:102F9000480000203A000020490000207400002072
:102FA00000B587B001210805FEF770FF0121102050
:102FB000FEF77CFF01212020FEF778FF18208DF816
:102FC0001B004FF48050ADF8180003208DF81A0054
:102FD00006A92048FDF72FFE04208DF81B00ADF850
:102FE000180003208DF81A0006A91B48FDF723FEE0
:102FF0004FF4165002900020ADF814000C20ADF8EC
:1030000012000020ADF81000ADF80E00ADF80C0075
:1030100002A9124800F064F9012240F225510F483C
:1030200000F038F94FF4A060FEF7BCFC35208DF8B5
:10303000040001208DF8070000208DF805008DF8B0
:10304000060001A8FEF776FC0121044800F0DFF835
:1030500007B000BD001001400014014000500040C6
:10306000F0B5C1B005460E461746294601A8FDF742
:103070008CF82B2101A8FDF777F804464CB100200D
:10308000207001A8FDF78AF83080601CFDF786F8F3
:10309000388041B0F0BD70B505460E46002404E00E
:1030A000285D00F097F8601CC4B2B442F8DB70BD34
:1030B0000EB504A207CA8DE8070009216846FFF78C
:1030C000EAFF0EBD7E000801000201ABCD0000004A
:1030D00010B50446FF2000F051F8204600F04EF8ED
:1030E000FE2000F04BF810BD10B540F225511E48EF
:1030F00000F0A6F8012836D11B4800F05DF9C4B2F3
:103100001A48007840B9FF2C27D1012017490870D0
:1031100000201749087020E014480078012810D1D9
:10312000144813490978445411480078401C104948
:1031300008700846007807280FDD02200B49087048
:103140000BE00A480078022807D1FE2C05D10020A8
:103150000649087001200849087040F225510248CC
:1031600000F046F800BF10BD0038014046000020C6
:10317000470000203E0000203800002010B5044623
:103180000548048000BF80210348001F00F04BF871
:103190000028F8D010BD00000438014010B540F2FE
:1031A00025510A4800F04CF801280ED1074800F0DC
:1031B00003F9C4B2022C02D101200549087040F283
:1031C0002551024800F014F800BF10BD0044004033
:1031D0003900002010B504460448848000BF8021D7
:1031E000024800F020F80028F9D010BD005000403F
:1031F00010B50022002340F66A14A14200D100BF9E
:103200000A1201249440A3B2DC43048010BD21B112
:10321000828942F40052828104E082894DF6FF7374
:103220001A408281704702460020B1F5007F00D12C
:1032300000BF13880B400BB1012000E00020704755
:1032400070B50246002400230025002040F66A16CF
:10325000B14200D100BFC1F3421501F01F030126A6
:1032600006FA03F3012D02D19689334006E0022DC0
:1032700002D1168A334001E0968A33400C120126AF
:1032800006FA04F41688344013B10CB1012000E0B2
:10329000002070BDF0B50346002400260025002064
:1032A00040F66A17B94200D100BF1846C1F3421474
:1032B00001F01F06012707FA06F5012C01D10C3099
:1032C00004E0022C01D1103000E014301AB107687C
:1032D0002F43076002E00768AF430760F0BD0000BE
:1032E0002DE9F04786B005460E460024A24600BFF1
:1032F000A1460027B08900B100BF2F462C8A4CF6AA
:10330000FF700440F08804432C82AC894EF6F31021
:103310000440B08831890843718908430443AC8173
:10332000AC8A4FF6FF400440B0890443AC8201A848
:10333000FEF7CCFD1F48874202D1DDF810A001E066
:10334000DDF80CA0A88900F4004040B10AEBCA00E7
:1033500000EB0A1031684900B0FBF1F807E00AEB16
:10336000CA0000EB0A1031688900B0FBF1F8642054
:10337000B8FBF0F004012009642101FB1089A88941
:1033800000F4004040B1322000EBC900B0FBF1F086
:1033900000F00700044308E0322000EB091064212C
:1033A000B0FBF1F000F00F0004432C8106B0BDE843
:1033B000F08700000038014001468888C0F308000B
:1033C0007047C1F308028280704700BFFEE700002B
:1033D00037B514460846064B6A46214600F0E6F823
:1033E00004466946002000F078FC20463EBD0000FF
:1033F000DB3C0008004870477000002002E008C86D
:10340000121F08C1002AFAD170477047002001E05E
:1034100001C1121F002AFBD170470000014908605A
:1034200070470000700000202DE9FF5F82B000218E
:10343000DDE90430020DDDF840B0034318D044F656
:103440001050A2F2FF3242431514119801281FD0E8
:10345000A5EB0B00401C5FEA000A4FF000064E4F40
:10346000DFF83891B046504615D5CAF1000413E094
:10347000119801244AA3012801D16FEA0B01029897
:10348000119AC0E90031C0E9024206B0BDE8F09FE0
:10349000CBF10000DFE704460021404A491842EB27
:1034A0000450CDE9001012E0E00707D032463B4659
:1034B00040464946FCF726FF8046894632463B4651
:1034C00010461946FCF71EFF06460F466410002CF6
:1034D000EAD1DDE90401DDE90023BAF1000F06DAE3
:1034E000FCF710FF42464B46FCF70CFF05E0FCF7EB
:1034F0007BFF42464B46FCF777FF04460E46002210
:10350000284BFDF71BF803D84FF0FF30014607E0CA
:103510000022254B20463146FCF74DFEFDF7D7F93A
:10352000102409E0002C0ADB0A220023FDF750F8E2
:10353000039B30321A55641E50EA0102F2D1641C1A
:10354000039AC4F111031444119A012A03D00122F1
:1035500008430DD10AE0084304D000204FF0110BBE
:10356000119072E7A3EB0B056D1E0DE05B4504DDCA
:103570004FF0000205F1010504E003DA4FF000020C
:10358000A5F10105002AECD002981199C0E9023199
:10359000C0E9004579E70000000014400000F03F5A
:1035A000300000000000F0430000E03F2DE9FF4F35
:1035B00095B09B468946064600250FE2252877D11F
:1035C00000242746F84A0121059400E0044316F838
:1035D000013F203B01FA03F01042F7D130782A284E
:1035E00011D06FF02F033078A0F13002092A16D8DD
:1035F000059A44F0020402EB820203EB42021044FB
:10360000761C0590EFE759F8042B0592002A03DA9F
:10361000504244F40054059044F00204761C307883
:103620002E2816D116F8010F44F004042A280DD0D4
:103630006FF02F023078A0F13003092B09D807EB87
:10364000870302EB4303C718761CF3E759F8047BA2
:10365000761C30786C280FD006DC4C2817D06828F0
:103660000DD06A2814D104E0742810D07A280FD124
:103670000DE044F400140AE044F4801401E044F442
:1036800040147278824202D104F58014761C761CB4
:10369000307866280BD013DC582877D009DC002856
:1036A00075D04528F6D04628F4D047281AD19DE198
:1036B00018E0632835D0642879D0652812D195E1C7
:1036C000702873D008DC6728F1D069286FD06E2885
:1036D0000DD06F2806D1B5E073282CD0752875D091
:1036E000782874D05A46179990476D1C75E1C4F339
:1036F0000250022809D003280DD0D9F80010042860
:103700000DD00D6009F1040967E1D9F80010EA173E
:10371000C1E90052F6E7D9F800100D80F2E70D700C
:10372000F0E719F8041B8DF8001000208DF8010057
:10373000EA46012003E059F804AB4FF0FF3061077F
:103740004FF0000102D40DE008F101018846B942B2
:103750000FDA8045F8DB1AF808100029F4D108E0E8
:1037600008F1010188468142FADB1AF808100029A5
:10377000F6D105985B46A0EB080721463846179A14
:1037800000F094FA284400EB080507E04DE029E139
:103790000DE01AF8010B5A4617999047B8F1010845
:1037A000F7D25B4621463846179A13E142E00A22D7
:1037B0000092C4F302524FF0000A022A08D059F8CE
:1037C00004CB032A4FEAEC710AD00DE029E02AE08D
:1037D00009F1070121F00702F2E802C1914609E070
:1037E0000FFA8CFC4FEAEC71042A03D14FFA8CFCDF
:1037F0004FEAEC71002907DA0A460021DCF1000CDF
:1038000061EB02012D2202E0220504D52B228DF866
:103810000420012203E0E20701D02022F7E79046CE
:1038200059E00A2102E010220DE010214FF0000AB9
:1038300000910BE010224FF0000A44F00404082726
:10384000009203E008224FF0000A0092C4F30252F3
:10385000022A05D059F804CB0021032A08D009E038
:1038600009F1070121F00702F2E802C1914605E0E3
:103870001FFA8CFC042A01D10CF0FF0C4FF0000859
:10388000220728D5702806D0009B83F0100353EA46
:103890000A0305D00EE040228DF80420012208E042
:1038A0005CEA010206D030228DF804208DF8050074
:1038B00002229046009B83F0080353EA0A030AD1D0
:1038C0005CEA010201D1620705D530228DF804209F
:1038D0004FF001087F1E582804D034A003900EA892
:1038E00002900DE036A0F9E753466046009AFCF7D7
:1038F0006FFE84460398825C0298401E029002701C
:103900005CEA0100F0D1029806A9081A00F1200A29
:10391000600702D524F4803400E00127574502DD1A
:10392000A7EB0A0000E0002000EB0A0100900598D8
:103930004144401A0590E00306D45B462146179A9D
:10394000059800F0B3F90544002706E001A85A469F
:10395000C05D179990476D1C7F1C4745F6DBE0035F
:103960000CD55B462146179A059800F09FF905444F
:1039700004E030205A46179990476D1C0099481E64
:1039800000900029F5DC08E0029802995A46007878
:10399000491C0291179990476D1CBAF10001AAF1D8
:1039A000010AF1DC65E10000092801003031323301
:1039B000343536373839616263646566000000006B
:1039C0003031323334353637383941424344454655
:1039D0000000000000F058F90544761C30780028FB
:1039E0007FF4ECAD19B02846BDE8F08F620700D433
:1039F000062709F1070222F0070CFCE80223E14642
:103A000003F000485FEA080C02D00FF2702C0DE0C2
:103A10005FEA045C02D50FF2682C07E05FEAC47C21
:103A200002D00FF2602C01E0AFF2700C4FF0FF38C3
:103A300023F00043CDF850C065280CD006DC4528A3
:103A400009D046281DD047283DD13DE0662818D032
:103A500067287ED138E00021112F01DB112000E022
:103A6000781CCDE9000106A90EA8FFF7DDFCDDE911
:103A70000F010E9A03910021009207F1010A0491AF
:103A80004DE04FF000400097CDE9011006A90EA8C7
:103A9000FFF7CAFCDDE90F0203920E9B1199002289
:103AA000DDF80CA00093049211B9791C00EB010A17
:103AB000B7EB0A0004D4C0F1FF3007F1010A04900B
:103AC000AAEB0700019044E0012F00DA0127002152
:103AD000112F01DD112000E03846CDE9000106A9D3
:103AE0000EA8FFF7A1FCDDE90F010E9A039100215A
:103AF00004910092BA4621070CD40399514500DA8B
:103B00008A46BAF1010F05DD009AAAF10101515C64
:103B1000302908D0B84202DA10F1040F06DA012188
:103B2000CDE9011015E0AAF10101E9E7002805DC63
:103B3000049901440491AAEB000102E0411C5145A3
:103B400000DD8A460499401A401C01904FF0004065
:103B50000290200704D40198504501DBCDF8048081
:103B600000208DF84F0002980DF14F07B0F1004F83
:103B700025D02B200E9002984FF0020800280CDA76
:103B8000404202902D200E9007E00A210298FCF797
:103B900009FD3031029007F8011DB8F10001A8F1CC
:103BA0000108F2DC02980028EFD1791E0E98087007
:103BB000307800F0200040F0450007F8020D12A810
:103BC000C01B00F107081498007800B1012000EB39
:103BD0000A01019801EBE07105984144401A401E2A
:103BE0000590E00306D45B462146179A059800F03D
:103BF0005DF805441498007818B15A461799904713
:103C00006D1CE00324D55B462146179A059800F009
:103C10004DF805441CE00498002807DBDDE90301AA
:103C2000884203DD0098405C179901E01799302025
:103C30005A469047049805F10105401C04900198EC
:103C4000401E019004D12E205A46179990476D1CB2
:103C5000BAF10001AAF1010ADDDC05E017F8010B59
:103C60005A46179990476D1CB8F10001A8F1010858
:103C7000F4DC5B462146179A0598ABE62D00000060
:103C80002B000000200000002DE9F0410446002533
:103C90001E461746880404D405E039462020B04764
:103CA0006D1C641EF9D52846BDE8F0812DE9F04170
:103CB000044600251E469046C80301D5302700E083
:103CC0002027880404D505E041463846B0476D1CDE
:103CD000641EF9D52846BDE8F0810A68531C0B60C4
:103CE000107070470146002901DD88B270474842D4
:103CF00080B2FBE710B55620064948800846408848
:103D00000988401A00B203498880B1F9040000F024
:103D100005FA10BD6A00002010B500200649488051
:103D2000084640880988401A00B203498880B1F9E2
:103D3000040000F0F3F910BD6A00002010B55A200D
:103D400006494880084640880988401A00B203495D
:103D50008880B1F9040000F0E1F910BD6A0000208C
:103D600010B5562006494880084640880988401A00
:103D700000B203498880B1F9040000F0CFF910BD0A
:103D80006A00002010B55220064948800846408845
:103D90000988401A00B203498880B1F9040000F094
:103DA000BDF910BD6A00002010B50020064948800A
:103DB000084640880988401A00B203498880B1F952
:103DC000040000F0ABF910BD6A00002010B500201F
:103DD00006494880084640880988401A00B20349CD
:103DE0008880B1F9040000F0DDF910BD6A00002000
:103DF00010B5502006494880084640880988401A76
:103E000000B203498880B1F9040000F087F910BDC1
:103E10006A00002010B566200649488008464088A0
:103E20000988401A00B203498880B1F9040000F003
:103E300075F910BD6A00002010B5B420064948800D
:103E4000084640880988401A00B203498880B1F9C1
:103E5000040000F063F910BD6A00002010B5642072
:103E60000849087008460078FEF79AF8192000F013
:103E700041FB04480078FEF793F8192000F03AFB64
:103E800010BD00004D00002010B5FFF745FFFFF703
:103E9000E5FFC82000F02EFBFFF7CEFFC82000F0A2
:103EA00029FB00F0F9FAC82000F024FBC82000F03C
:103EB00021FBC82000F01EFBFFF752FF4FF4967065
:103EC00000F018FB00F014F9FFF7B6FF00F0D8FA85
:103ED00000F00EF9C82000F00DFB10BD10B5FFF783
:103EE0001BFFFFF7BBFFC82000F004FBFFF7A4FF98
:103EF000C82000F0FFFA00F0DBFAC82000F0FAFA60
:103F0000C82000F0F7FAC82000F0F4FAFFF728FF05
:103F10004FF4967000F0EEFA00F0EAF8FFF78CFF2D
:103F200000F0AEFA00F0E4F8C82000F0E3FA10BDAB
:103F300010B5FFF7F1FEFFF791FFC82000F0DAFAA5
:103F4000FFF77AFFC82000F0D5FA00F0BDFAC820CC
:103F500000F0D0FAC82000F0CDFAC82000F0CAFA6C
:103F6000FFF7FEFE4FF4967000F0C4FA00F0C0F8C0
:103F7000FFF762FF00F084FA00F0BAF8C82000F002
:103F8000B9FA10BD10B500F07BFAC82000F0B2FA03
:103F9000FFF7D4FEFFF762FFC82000F0ABFAFFF78F
:103FA0004BFFC82000F0A6FA00F076FAC82000F017
:103FB000A1FAC82000F09EFAC82000F09BFAFFF793
:103FC000CFFE4FF4967000F095FA00F091F8FFF7ED
:103FD00033FF4FF4967000F08DFA00F051FA4FF471
:103FE000967000F087FAFFF715FF00F081F8C820FF
:103FF00000F080FA10BD10B500F042FAC82000F0C1
:1040000079FAFFF79BFEFFF729FFC82000F072FA4C
:10401000FFF712FFC82000F06DFA00F049FAC8203F
:1040200000F068FAC82000F065FAC82000F062FAD3
:10403000FFF796FE4FF4967000F05CFA00F058F827
:10404000FFF7FAFE4FF4967000F054FA00F018FAF9
:104050004FF4967000F04EFAFFF7DCFE00F048F8DF
:10406000C82000F047FA10BD10B500F009FAC820CA
:1040700000F040FAFFF762FEFFF7F0FEC82000F004
:1040800039FAFFF7D9FEC82000F034FA00F01CFA24
:10409000C82000F02FFAC82000F02CFAC82000F049
:1040A00029FAFFF75DFE4FF4967000F023FA00F056
:1040B0001FF8FFF7C1FE4FF4967000F01BFA00F0F6
:1040C000DFF94FF4967000F015FAFFF7A3FE00F049
:1040D0000FF8C82000F00EFA10BD10B5FFF7ACFEC7
:1040E0004FF4967000F006FA00F0EEF910BD0000F3
:1040F00010B54C200849087008460078FDF750FFBD
:10410000192000F0F7F904480078FDF749FF19205D
:1041100000F0F0F910BD00004D00002070B504461D
:1041200000251D480088204400B21B49088008462D
:10413000B0F90000002805DB0846B0F90000B0F532
:10414000857F06DB14480088001B00B212490880F6
:1041500020E0002C03DD0120FDF7DAFB04E06042E3
:1041600004B20020FDF7D4FBA5010C480560002037
:104170000B4908606423322211462846FDF7D0FA25
:1041800006E00748006805490968884200D100E058
:10419000F7E700BF70BD00006A0000206400002047
:1041A0005400002070B504460025184800882044BB
:1041B00000B2164908800846B0F90000002805DB67
:1041C0000846B0F90000B0F5857F06DB0F4800888F
:1041D000001B00B20D49088016E0002C03DD012011
:1041E000FDF796FB04E0604204B20020FDF790FB6F
:1041F000A501074805600020064908602D232422F8
:1042000011462846FDF78CFA70BD00006A000020B8
:10421000640000205400002010B5FFF70DFE00F0F0
:104220003BF9C82000F066F9FFF764FDFFF716FEC2
:104230004FF4967000F05EF9FFF7FEFD4FF49670B4
:1042400000F058F94FF4967000F054F900F018F9A6
:104250004FF4967000F04EF9FFF794FD4FF496700E
:1042600000F048F9FFF744FF4FF4967000F042F970
:10427000FFF7E2FD4FF4967000F03CF910BD10B569
:10428000FFF7DAFD00F014F9C82000F033F9FFF76A
:1042900031FDFFF7E3FD4FF4967000F02BF9FFF7C7
:1042A000CBFD4FF4967000F025F94FF4967000F0B6
:1042B00021F900F0E5F84FF4967000F01BF9FFF7D4
:1042C00061FD4FF4967000F015F9FFF711FF4FF400
:1042D000967000F00FF9FFF7AFFD4FF4967000F005
:1042E00009F910BD10B5FFF7A7FD00F0EDF8C820E3
:1042F00000F000F9FFF7FEFCFFF7B0FD4FF49670F9
:1043000000F0F8F8FFF798FD4FF4967000F0F2F81F
:104310004FF4967000F0EEF800F0B2F84FF496709B
:1043200000F0E8F8FFF72EFD4FF4967000F0E2F889
:10433000FFF7DEFE4FF4967000F0DCF8FFF77CFD2F
:104340004FF4967000F0D6F810BD10B5FFF774FD6D
:1043500000F0A2F84FF4967000F0CCF8FFF7CAFC1A
:10436000FFF77CFD4FF4967000F0C4F8FFF764FD92
:104370004FF4967000F0BEF84FF4967000F0BAF863
:1043800000F07EF84FF4967000F0B4F8FFF7C4FC2C
:104390004FF4967000F0AEF8FFF7AAFE4FF4967057
:1043A00000F0A8F8FFF748FD4FF4967000F0A2F86F
:1043B00010BD10B5FFF740FD00F07AF8C82000F0FE
:1043C00099F8FFF797FCFFF749FD4FF4967000F05E
:1043D00091F8FFF731FD4FF4967000F08BF84FF431
:1043E000967000F087F800F04BF84FF4967000F0EC
:1043F00081F8FFF791FC4FF4967000F07BF8FFF71F
:1044000077FE4FF4967000F075F8FFF715FD4FF446
:10441000967000F06FF810BD10B5FFF70DFD00F0BD
:1044200053F8C82000F066F8FFF764FCFFF716FDAC
:104430004FF4967000F05EF8FFF7FEFC4FF49670B4
:1044400000F058F84FF4967000F054F800F018F8A7
:104450004FF4967000F04EF8FFF75EFC4FF4967044
:1044600000F048F8FFF744FE4FF4967000F042F871
:10447000FFF7E2FC4FF4967000F03CF810BD00002E
:1044800010B511200349087008460078FDF7AEFD0D
:1044900010BD00004E00002010B56E2003490870CA
:1044A00008460078FDF7A2FD10BD00004E00002078
:1044B00010B598200349087008460078FDF796FD6E
:1044C00010BD00004E00002010B5BC20034908704C
:1044D00008460078FDF78AFD10BD00004E00002060
:1044E00010B5FCF70FFDFCF7ABFDFCF749FEFCF740
:1044F000EFFE10BD00B5034603E04FF47A7000F004
:1045000005F8181EA3F10103F7D100BD00EBC001AF
:10451000C9004FF0E0225161002191610521116134
:1045200000BF4FF0E021096901F480310029F8D083
:1045300004214FF0E02211617047000000F073F891
:10454000FFF7CEFF40F6B830FFF7D4FFFDF734FA9F
:10455000FEF7AEFD4FF47A70FFF7CCFFFDF7BCFD20
:10456000012807D10623114A00210846FDF712FC55
:10457000FDF728FC18E0FDF7A1FD01280BD1022072
:10458000FEF7A6FD0220FEF7A3FD0220FEF7A0FD28
:104590000220FEF79DFDFDF783FD012804D100F008
:1045A000A5F80120FEF794FDE5E700007400002067
:1045B00030B505460C462846FFF794FB02462046D8
:1045C000FFF790FB03469A4201DD104630BD93424F
:1045D00001DD1846FAE70020F8E72DE9F04106462C
:1045E0000F46FCF723F9041E0D4618BF012028438F
:1045F00020F00040C0F17F6000F1E040C00F0ED01D
:10460000301C18BF0120384320F00040C0F17F600B
:1046100000F1E040C00F04BF0120FEF7FFFE20467E
:104620002946BDE8F08110B54FF4A060FDF7BAF956
:10463000FCF738FCFCF7DEFBFDF78EFAFEF7A4FB77
:10464000FEF704FCFEF7ACFCFEF738F93220FFF76A
:1046500051FF00F069FA10BD0FB438B505A80090FD
:104660002048009A0499FEF7B3FE002000901D48F0
:10467000FBF784FD85B200240DE01A48015D1A485D
:10468000FEF79FFE00BF40211748FEF7CCFD002833
:10469000F9D0601C84B2AC42EFDBFF211248FEF778
:1046A00090FE00BF80211048FEF7BDFD0028F9D024
:1046B000FF210D48FEF785FE00BF80210A48FEF766
:1046C000B2FD0028F9D0FF210748FEF77AFE00BFAF
:1046D00080210548FEF7A7FD0028F9D038BC5DF819
:1046E00014FB0000D8000020004400402DE9FC47E6
:1046F0004FF0000AD24890F800A0002400250026C0
:10470000002001900090002780468146BAF1130FE7
:1047100070D00EDCBAF1130F6DD2DFE80AF06C1B1B
:10472000304458597084878A6C8D6CA96C6C6CF716
:10473000F600AAF121001628EED2DFE800F0F3F22D
:10474000F1F0EFEE5C5C5C5C5C5C5C5C5CEDECEBAB
:10475000EAE95CE8BA48407844B20020B949086008
:1047600000212046FCF7A8FE06E0B6480068B649DE
:104770000968884200D100E0F7E700BF5CE1B0487B
:10478000807845B20020AF4908602946FCF794FEC6
:1047900006E0AC480068AC490968884200D100E0F6
:1047A000F7E700BF48E1A648C07846B20020A54917
:1047B00008603046FCF72CFE06E0A2480068A349DA
:1047C0000988884200D100E0F7E700BF34E133E117
:1047D0009B48407844B200209A4908600021204656
:1047E000FCF786FE08E09748006897490968884208
:1047F00002D102E0C2E01EE1F5E700BF1CE19048F3
:10480000807845B200208F4908602946FCF770FE89
:1048100006E08C4800688C490968884200D100E0B5
:10482000F7E700BF08E1FFF7ADFB05E1FFF7E3FBAA
:1048300002E1FFF719FCFFE081484778012F06D01D
:10484000022F09D0032F0AD0042F0ED10AE0FFF760
:1048500017FEFFF7A9FA09E0FFF7DCFA06E0FFF719
:10486000C7FA03E0FFF78EFA00E000BF00BFE3E005
:10487000734890F8018080784FFA80F9B8F1010F01
:1048800006D0B8F1020F24D0B8F1030F6DD14DE07E
:1048900000206C4908606E49086000214846FCF71A
:1048A0000BFEFFF7EDFD6420FFF724FEFFF78EFA05
:1048B0000CE06448006864490968884206D164488D
:1048C000006864490968884200D100E0F1E700BF50
:1048D0004CE000205B4908605D49086000214846C3
:1048E000FCF7EAFDC820FFF705FEFFF793FA1AE090
:1048F0005448006854490968884214D154480068F3
:104900005449096888420ED10EE034E030E053E0AB
:104910008DE08DE04DE049E045E041E03DE039E0EB
:1049200035E031E02DE0E3E700BF1FE0002045491E
:1049300008604749086000214846FCF7BDFDC820D3
:10494000FFF7D8FDFFF754FA0CE03E4800683E49F7
:104950000968884206D13E4800683E490968884295
:1049600000D100E0F1E700BF00E000BF00BF63E05E
:10497000FFF78AFA60E0FFF7B1FA5DE0FFF7D8FAD7
:104980005AE0FFF7E2FC57E0FFF713FD54E0FFF7B2
:1049900043FD51E0FFF740FC4EE0FFF770FC4BE0B9
:1049A000FFF7A0FC48E0FFF747FA45E0FFF7B4F94E
:1049B00042E0FFF765FD3FE06A4601A92648FEF7A1
:1049C0004FFBBDF80020BDF8041024A0FFF744FE03
:1049D0000A20FFF78FFDBDF80020BDF804101FA0CE
:1049E000FFF73AFE0A20FFF785FDBDF80020BDF86D
:1049F00004101AA0FFF730FE0A20FFF77BFDBDF878
:104A00000020BDF8041015A0FFF726FE0A20FFF7CE
:104A100071FDBDF80020BDF8041010A0FFF71CFECA
:104A20000A20FFF767FD0C48FEF702FA04E003E0F6
:104A3000FFF753FB00E000BF00BFBDE8FC870000AC
:104A40003E000020500000205C000020600000209C
:104A500054000020640000207400002074332E7481
:104A600078743D2225642B256422000070B5002453
:104A70000EE0002508E0E02004EB4401084A02EBC8
:104A8000C1014855681CC5B2182DF4DB601C84B206
:104A90000E2CEEDB00F08AF88C20FFF72BFD70BDAA
:104AA0008401002000B58BB001210846FDF7DEF936
:104AB0000F48FBF7F9FF0F4800900F4801901020B6
:104AC00002904FF4A870039000200490802005907D
:104AD00000200690079008904FF480500990002025
:104AE0000A9069460248FCF785F80BB000BD00004B
:104AF000300002400C3001408401002008B5012143
:104B00000420FDF7D3F98020ADF8000018208DF8BF
:104B1000030003208DF8020069460248FCF78BF879
:104B200008BD00000008014010B5FFF7E7FF00F0E6
:104B300009F8FFF7B7FFFFF799FF8C20FFF7DAFCC2
:104B400010BD000000B585B001210803FDF7AEF9E6
:104B50004FF44040ADF800004FF48270ADF8020011
:104B60000020ADF80400ADF806000120ADF8080003
:104B70004002ADF80A001020ADF80C000020ADF89E
:104B80000E000720ADF8100069460748FDF769FAE6
:104B900001210548FDF750FA012202210248FDF7E4
:104BA00057FA05B000BD00000030014010B50021EB
:104BB0000848FBF76DFF4FF40070FBF75BFF4FF405
:104BC000A8710448FCF734F801210248FBF760FFA4
:104BD00010BD000030000240000000000000000096
:104BE0000000000000000000000000F800000000CD
:104BF000000000333000000000160E00160E00000A
:104C0000000000000000000040C07840C078400074
:104C1000043F04043F040400007088FC08300000D6
:104C2000001820FF211E0000F008F000E01800002E
:104C300000211C031E211E0000F0088870000000E7
:104C40001E21232419272110000000160E00000049
:104C50000000000000000000000000E01804020056
:104C6000000000071820400000020418E0000000C7
:104C70000040201807000000404080F080404000C5
:104C80000202010F01020200000000F0000000001B
:104C90000101011F010101000000000000000000EF
:104CA00000B07000000000000000000000000000E4
:104CB00000010101010101010000000000000000ED
:104CC0000030300000000000000000008060180488
:104CD000006018060100000000E010080810E00065
:104CE000000F102020100F00001010F8000000002E
:104CF0000020203F20200000007008080888700075
:104D000000302824222130000030088888483000F4
:104D10000018202020110E000000C02010F8000014
:104D200000070424243F240000F8088888080800AD
:104D30000019212020110E0000E0108888180000C2
:104D4000000F112020110E0000380808C838080094
:104D50000000003F00000000007088080888700014
:104D6000001C222121221C0000E010080810E00095
:104D70000000312222110F00000000C0C00000001E
:104D80000000003030000000000000C0C000000043
:104D9000000080B07000000000008040201008007B
:104DA0000001020408102000404040404040400004
:104DB00004040404040404000008102040800000DF
:104DC0000020100804020100007048080808F000E4
:104DD0000000003036010000C030C828E810E000B4
:104DE0000718272423140B000000C038E00000003F
:104DF000203C23020227382008F8888888700000A9
:104E0000203F202020110E00C0300808080838007C
:104E1000071820202010080008F808080810E000F3
:104E2000203F202020100F0008F88888E808100094
:104E3000203F20202320180008F88888E808100068
:104E4000203F200003000000C030080808380000A0
:104E500007182020221E020008F808000008F808A1
:104E6000203F210101213F20000808F80808000028
:104E70000020203F2020000000000808F80808005B
:104E8000C08080807F00000008F888C028180800D3
:104E9000203F20012638200008F80800000000000C
:104EA000203F20202020300008F8F800F8F8080003
:104EB000203F003F003F200008F830C00008F808FD
:104EC000203F200007183F00E01008080810E0000D
:104ED0000F10202020100F0008F808080808F00024
:104EE000203F210101010000E01008080810E00047
:104EF0000F18242438504F0008F8888888887000DC
:104F0000203F2000030C302000708808080838007B
:104F10000038202121221C00180808F80808180071
:104F20000000203F2000000008F808000008F808F2
:104F3000001F202020201F000878880000C83808A3
:104F4000000007380E010000F80800F80008F8001B
:104F5000033C0700073C03000818688080681808B5
:104F600020302C03032C30200838C800C838080033
:104F70000000203F2000000010080808C838080082
:104F80002038262120201800000000FE0202020026
:104F90000000007F40404000000C30C000000000D6
:104FA000000000010638C00000020202FE000000FE
:104FB000004040407F00000000201008040810203E
:104FC00000000000000000000000000000000000E1
:104FD00080808080808080800002040800000000C3
:104FE00000000000000000000000808080800000C1
:104FF0000019242222223F2008F8008080000000AF
:10500000003F112020110E00000000808080000071
:10501000000E112020201100000000808088F80080
:10502000000E112020103F200000808080800000B2
:10503000001F222222221300008080F08888881816
:105040000020203F20200000000080808080800021
:10505000006B94949493600008F8008080800000B6
:10506000203F210000203F20008098980000000091
:105070000020203F202000000000008098980000C1
:1050800000C08080807F000008F8000080808000E1
:10509000203F24022D302000000808F80000000006
:1050A0000020203F202000008080808080808000C1
:1050B000203F20003F20003F0080800080800000D3
:1050C00000203F2100203F200000808080800000E1
:1050D000001F202020201F00808000808000000012
:1050E00080FFA12020110E00000000808080800041
:1050F000000E112020A0FF80808080008080800032
:1051000020203F212000010000008080808080005E
:105110000033242424241900008080E080800000D3
:105120000000001F20200000808000000080800020
:10513000001F202020103F20808080000080808081
:1051400000010E3008060100808000800080808011
:105150000F300C030C300F00008080008080800036
:105160000020312E0E312000808080000080808061
:1051700080818E7018060100008080808080800011
:105180000021302C2221300000000000807C02022F
:1051900000000000003F404000000000FF00000051
:1051A00000000000FF0000000002027C8000000000
:1051B0000040403F00000000008040408000008030
:1051C00000000000000101000000000000000000DD
:1051D000002F000000000700070000147F147F1458
:1051E00000242A7F2A1200231308646200364955DE
:1051F000225000000007000000001C2241000000B7
:1052000041221C000014083E08140008083E08084B
:10521000000000A0600000080808080800006060A6
:105220000000002010080402003E5149453E0000E5
:10523000427F4000004261514946002141454B31C7
:10524000001814127F10002745454539003C4A4993
:105250004930000171090503003649494936000605
:105260004949291E0000363600000000563600006D
:1052700000081422410000141414141400004122E8
:105280001408000201510906003E4955592E007CC0
:105290001211127C007F49494936003E41414122AA
:1052A000007F4141221C007F49494941007F090993
:1052B0000901003E4149497A007F0808087F000043
:1052C000417F4100002040413F01007F08142241FE
:1052D000007F40404040007F020C027F007F0408B6
:1052E000107F003E4141413E007F09090906003E12
:1052F0004151215E007F091929460046494949313B
:105300000001017F0101003F4040403F001F20405D
:10531000201F003F4038403F00631408146300071B
:105320000870080700615149454300007F41410072
:10533000000204081020000041417F000004020127
:1053400002040040404040400000010204000020F0
:1053500054545478007F484444380038444444202E
:1053600000384444487F00385454541800087E09DB
:1053700001020018A4A4A47C007F080404780000A3
:10538000447D4000004080847D00007F1028440060
:105390000000417F4000007C04180478007C080471
:1053A000047800384444443800FC242424180018AD
:1053B000242418FC007C0804040800485454542099
:1053C00000043F444020003C4040207C001C204022
:1053D000201C003C4030403C004428102844001C65
:1053E000A0A0A07C004464544C440000087F41000D
:1053F0000000007F00000000417F08000008040852
:10540000100800000000FF010101310909090989A4
:105410007101010101FFFF80808080808096818082
:105420008080808080FFFF01818181FD8991A1C101
:10543000FD81818101FFFF808080809F888482813F
:105440009F80808080FF004040404040404040407E
:105450004141414141404040404040404040404047
:105460004040404040404005020202020202020267
:1054700002020202020202202020202020202020FE
:10548000200202020202020290909090909010106E
:10549000101010101010101010101010101010100C
:1054A0001010020202020202888888888888080890
:1054B000080808080808080808080808080808086C
:1054C000080802020202400047540008EC54000899
:1054D0000000002074000000FC3300086055000844
:1054E000740000207C0A00000C340008000000005A
:1054F0000102030401020304060708090204060866
:10550000000000000000000000000000000000009B
:10551000000000000000000000000000000000008B
:10552000000000000000000000000000000000007B
:10553000000000000000000000000000000000006B
:10554000000000000000000000000000000000005B
:10555000000000000000000000000000000000004B
:0400000508000145A9
:00000001FF
